{
  "_format": "hh-sol-artifact-1",
  "contractName": "Voting",
  "sourceName": "contracts/Voting.sol",
  "abi": [
    {
      "inputs": [
        {
          "internalType": "string[]",
          "name": "proposalNames",
          "type": "string[]"
        },
        {
          "internalType": "address",
          "name": "verifierAddress",
          "type": "address"
        }
      ],
      "stateMutability": "nonpayable",
      "type": "constructor"
    },
    {
      "anonymous": false,
      "inputs": [
        {
          "indexed": true,
          "internalType": "address",
          "name": "voter",
          "type": "address"
        }
      ],
      "name": "ProofVerified",
      "type": "event"
    },
    {
      "anonymous": false,
      "inputs": [
        {
          "indexed": false,
          "internalType": "uint256",
          "name": "proposalId",
          "type": "uint256"
        },
        {
          "indexed": true,
          "internalType": "bytes32",
          "name": "nullifierHash",
          "type": "bytes32"
        },
        {
          "indexed": false,
          "internalType": "bool",
          "name": "isUpdate",
          "type": "bool"
        }
      ],
      "name": "VoteCast",
      "type": "event"
    },
    {
      "inputs": [
        {
          "internalType": "uint256",
          "name": "proposalId",
          "type": "uint256"
        }
      ],
      "name": "getProposal",
      "outputs": [
        {
          "internalType": "string",
          "name": "name",
          "type": "string"
        },
        {
          "internalType": "uint256",
          "name": "voteCount",
          "type": "uint256"
        }
      ],
      "stateMutability": "view",
      "type": "function"
    },
    {
      "inputs": [
        {
          "internalType": "bytes32",
          "name": "_hash",
          "type": "bytes32"
        }
      ],
      "name": "isUsed",
      "outputs": [
        {
          "internalType": "bool",
          "name": "",
          "type": "bool"
        }
      ],
      "stateMutability": "view",
      "type": "function"
    },
    {
      "inputs": [
        {
          "internalType": "bytes32",
          "name": "",
          "type": "bytes32"
        }
      ],
      "name": "nullifierUsed",
      "outputs": [
        {
          "internalType": "bool",
          "name": "",
          "type": "bool"
        }
      ],
      "stateMutability": "view",
      "type": "function"
    },
    {
      "inputs": [
        {
          "internalType": "uint256",
          "name": "",
          "type": "uint256"
        }
      ],
      "name": "proposals",
      "outputs": [
        {
          "internalType": "string",
          "name": "name",
          "type": "string"
        },
        {
          "internalType": "uint256",
          "name": "voteCount",
          "type": "uint256"
        }
      ],
      "stateMutability": "view",
      "type": "function"
    },
    {
      "inputs": [],
      "name": "verifier",
      "outputs": [
        {
          "internalType": "contract Verifier",
          "name": "",
          "type": "address"
        }
      ],
      "stateMutability": "view",
      "type": "function"
    },
    {
      "inputs": [
        {
          "internalType": "uint256",
          "name": "proposalId",
          "type": "uint256"
        },
        {
          "internalType": "bytes",
          "name": "proof",
          "type": "bytes"
        },
        {
          "internalType": "uint256[]",
          "name": "pubSignals",
          "type": "uint256[]"
        }
      ],
      "name": "vote",
      "outputs": [],
      "stateMutability": "nonpayable",
      "type": "function"
    }
  ],
  "bytecode": "0x60806040523480156200001157600080fd5b5060405162000cf338038062000cf383398101604081905262000034916200014a565b600180546001600160a01b0319166001600160a01b03831617905560005b8251811015620000db57600060405180604001604052808584815181106200007e576200007e620002a1565b60209081029190910181015182526000918101829052835460018101855593825290208151919260020201908190620000b8908262000346565b506020820151816001015550508080620000d29062000412565b91505062000052565b5050506200043a565b634e487b7160e01b600052604160045260246000fd5b604051601f8201601f191681016001600160401b0381118282101715620001255762000125620000e4565b604052919050565b80516001600160a01b03811681146200014557600080fd5b919050565b60008060408084860312156200015f57600080fd5b83516001600160401b03808211156200017757600080fd5b8186019150601f87818401126200018d57600080fd5b8251602083821115620001a457620001a4620000e4565b8160051b620001b5828201620000fa565b928352858101820192828101908c851115620001d057600080fd5b83880192505b848310156200028057825187811115620001f05760008081fd5b8801603f81018e13620002035760008081fd5b84810151888111156200021a576200021a620000e4565b6200022d818901601f19168701620000fa565b8181528f8c838501011115620002435760008081fd5b60005b8281101562000263578381018d0151828201890152870162000246565b5060009181018701919091528352509183019190830190620001d6565b9950620002929150508982016200012d565b96505050505050509250929050565b634e487b7160e01b600052603260045260246000fd5b600181811c90821680620002cc57607f821691505b602082108103620002ed57634e487b7160e01b600052602260045260246000fd5b50919050565b601f8211156200034157600081815260208120601f850160051c810160208610156200031c5750805b601f850160051c820191505b818110156200033d5782815560010162000328565b5050505b505050565b81516001600160401b03811115620003625762000362620000e4565b6200037a81620003738454620002b7565b84620002f3565b602080601f831160018114620003b25760008415620003995750858301515b600019600386901b1c1916600185901b1785556200033d565b600085815260208120601f198616915b82811015620003e357888601518255948401946001909101908401620003c2565b5085821015620004025787850151600019600388901b60f8161c191681555b5050505050600190811b01905550565b6000600182016200043357634e487b7160e01b600052601160045260246000fd5b5060010190565b6108a9806200044a6000396000f3fe608060405234801561001057600080fd5b50600436106100625760003560e01c8063013cf08b146100675780632b7ac3f314610091578063465710cc146100bc5780637ecf686d146100d1578063c7f758a814610104578063fe255a1814610117575b600080fd5b61007a610075366004610574565b61013a565b6040516100889291906105d3565b60405180910390f35b6001546100a4906001600160a01b031681565b6040516001600160a01b039091168152602001610088565b6100cf6100ca3660046106bc565b6101f6565b005b6100f46100df366004610574565b60026020526000908152604090205460ff1681565b6040519015158152602001610088565b61007a610112366004610574565b610495565b6100f4610125366004610574565b60009081526002602052604090205460ff1690565b6000818154811061014a57600080fd5b906000526020600020906002020160009150905080600001805461016d9061077c565b80601f01602080910402602001604051908101604052809291908181526020018280546101999061077c565b80156101e65780601f106101bb576101008083540402835291602001916101e6565b820191906000526020600020905b8154815290600101906020018083116101c957829003601f168201915b5050505050908060010154905082565b60005483106102425760405162461bcd60e51b8152602060048201526013602482015272125b9d985b1a59081c1c9bdc1bdcd85b081251606a1b60448201526064015b60405180910390fd5b60008082511161025357600061026f565b81600081518110610266576102666107b6565b60200260200101515b60405160200161028191815260200190565b60408051601f1981840301815291815281516020928301206000818152600290935291205490915060ff16801561032557604080518681526001602082015283917fd5a3e3205f112c306bbd72bdb598eab15336108733cad10856d796cc74e3901c910160405180910390a260405162461bcd60e51b815260206004820152600d60248201526c105b1c9958591e481d9bdd1959609a1b6044820152606401610239565b600154604051631e8e1e1360e01b81526000916001600160a01b031690631e8e1e139061035890889088906004016107cc565b602060405180830381865afa158015610375573d6000803e3d6000fd5b505050506040513d601f19601f820116820180604052508101906103999190610823565b9050806103d85760405162461bcd60e51b815260206004820152600d60248201526c24b73b30b634b210383937b7b360991b6044820152606401610239565b6001600087815481106103ed576103ed6107b6565b9060005260206000209060020201600101600082825461040d919061084c565b9091555050600083815260026020526040808220805460ff191660011790555133917f9cbb2c694eed9687ad9654ae462269807cc8b44f6dbd076f296bd916f1f3d0cd91a2604080518781526000602082015284917fd5a3e3205f112c306bbd72bdb598eab15336108733cad10856d796cc74e3901c910160405180910390a2505050505050565b6060600080600084815481106104ad576104ad6107b6565b90600052602060002090600202016040518060400160405290816000820180546104d69061077c565b80601f01602080910402602001604051908101604052809291908181526020018280546105029061077c565b801561054f5780601f106105245761010080835404028352916020019161054f565b820191906000526020600020905b81548152906001019060200180831161053257829003601f168201915b5050509183525050600191909101546020918201528151910151909590945092505050565b60006020828403121561058657600080fd5b5035919050565b6000815180845260005b818110156105b357602081850181015186830182015201610597565b506000602082860101526020601f19601f83011685010191505092915050565b6040815260006105e6604083018561058d565b90508260208301529392505050565b634e487b7160e01b600052604160045260246000fd5b604051601f8201601f1916810167ffffffffffffffff81118282101715610634576106346105f5565b604052919050565b600082601f83011261064d57600080fd5b8135602067ffffffffffffffff821115610669576106696105f5565b8160051b61067882820161060b565b928352848101820192828101908785111561069257600080fd5b83870192505b848310156106b157823582529183019190830190610698565b979650505050505050565b6000806000606084860312156106d157600080fd5b8335925060208085013567ffffffffffffffff808211156106f157600080fd5b818701915087601f83011261070557600080fd5b813581811115610717576107176105f5565b610729601f8201601f1916850161060b565b818152898583860101111561073d57600080fd5b81858501868301376000918101909401529193506040860135918083111561076457600080fd5b50506107728682870161063c565b9150509250925092565b600181811c9082168061079057607f821691505b6020821081036107b057634e487b7160e01b600052602260045260246000fd5b50919050565b634e487b7160e01b600052603260045260246000fd5b6040815260006107df604083018561058d565b82810360208481019190915284518083528582019282019060005b81811015610816578451835293830193918301916001016107fa565b5090979650505050505050565b60006020828403121561083557600080fd5b8151801515811461084557600080fd5b9392505050565b8082018082111561086d57634e487b7160e01b600052601160045260246000fd5b9291505056fea2646970667358221220fd4446bca59761a5dda4b05097934bdbee43acfb0c4c14357d9fd866a9df4f2664736f6c63430008140033",
  "linkReferences": {},
  "deployedLinkReferences": {}
}